:020000040800F2
:10000000E8040020211D0008FD1C0008FF1C00085A
:10001000011D0008031D0008051D00080000000068
:10002000000000000000000000000000071D0008A4
:10003000091D0008000000000B1D00080D1D000830
:10004000451D0008491D00084D1D0008511D0008F0
:10005000551D0008591D00085D1D0008611D0008A0
:10006000651D0008691D00086D1D0008711D000850
:10007000751D0008791D00087D1D0008811D000800
:10008000851D0008891D00088D1D0008911D0008B0
:10009000951D0008991D00089D1D0008A11D000860
:1000A000A51D0008A91D0008AD1D0008B11D000810
:1000B000B51D0008B91D0008BD1D0008C11D0008C0
:1000C000C51D0008C91D0008CD1D0008D11D000870
:1000D000D51D0008D91D0008DD1D0008E11D000820
:1000E000E51D0008E91D0008ED1D0008F11D0008D0
:1000F000F51D0008F91D0008FD1D0008011E00087F
:10010000051E0008091E00080D1E0008111E00082B
:10011000151E0008191E00081D1E0008211E0008DB
:10012000251E0008291E00082D1E0008311E00088B
:10013000351E0008391E00083D1E0008411E00083B
:10014000451E0008491E00084D1E0008511E0008EB
:10015000551E0008591E00085D1E0008611E00089B
:10016000651E0008691E00086D1E0008711E00084B
:10017000751E0008791E0008000000000000000045
:100180007D1E0008811E00082DE9FC47050017D0E0
:10019000DFF8E876DFF8F466BC68F86800F003087A
:1001A0002878C10604F00C0453D524B10C2C08BFE8
:1001B000B8F1010F2FD13868810703D5A86900284D
:1001C00000F06A81396808074EBF3968716809090B
:1001D000286A01F0F001814206D200F013FB0028EA
:1001E00009D100F00CFA08E000F009FA2CB9286AED
:1001F00000F008FB002840F04F8100F0A6FABA6832
:1002000000F099FADFF87C06006800F057FB010067
:1002100000F03281EDE1A86990B1396841F0010147
:10022000396000F06DFB81463868810700F122815A
:1002300000F066FBA0EB09000328F5D30320D8E10A
:10024000386840084000386000F05AFB8146386842
:10025000810740F1118100F053FBA0EB0900032856
:10026000F5D3EBE76868B0F5803F04D1386840F417
:100270008030386011E0B0F5A02F386806D140F426
:1002800080203860396841F4803105E020F4803006
:100290003860396821F480213960686868B100F0FD
:1002A0002FFB81463868810300F1F88000F028FBBD
:1002B000A0EB09006528F5D3C0E700F021FB8146DB
:1002C0003868810340F1EA8000F01AFBA0EB0900D6
:1002D0006528F5D3B2E700F013FB00F08CF9C0F00D
:1002E0000381ABE7E86880B1396841F48071396017
:1002F00000F006FB80463868410500F1E08000F020
:10030000FFFA00F078F9F6D398E7386820F48070A7
:10031000386000F0F5FA80463868410540F1D68033
:1003200000F0EEFA00F067F9F6D387E740084000E6
:10033000706000F0E5FA80467068810740F1D8806F
:1003400000F0DEFA00F057F9F6D377E705283068B9
:1003500006D140F004003060316841F0010105E051
:10036000400840003060316821F004013160A86825
:1003700041F2893968B100F0C3FA824630688107DA
:1003800000F1EC8000F0BCFAA0EB0A004845F5D380
:1003900054E700F0B5FA82463068810740F1DE800C
:1003A00000F0AEFAA0EB0A004845F5D346E700F4AA
:1003B00000328A420FD1EA6B520800F4C001521E8B
:1003C000B1EB425F07D1296C490800F0C060491EBB
:1003D000B0EB416F1FD00C2C5ED0386841015BD46C
:1003E0003868C10058D4386820F08070386000F058
:1003F00087FA04463868810140F1D78000F080FA1E
:10040000001B0328F6D319E700F07AFA401B0328F3
:10041000C0F0EA8012E73868810104D400F001F9E5
:1004200004463868810100F1E38000F069FA001B9E
:100430000328F6D302E70C2C2ED0386820F0807009
:100440003860396811F0205F03D1F86880088000B7
:10045000F860F968DFF83804014000F0E9F8044674
:100460003868810140F1C48000F04AFA001B03287B
:10047000F6D3E3E600F0C3F82878C1070ED5082CC0
:1004800005D00C2C08BFB8F1030F7FF4EBAE386831
:10049000810303D5686808B90120AAE0287881079C
:1004A00014D5042C05D00C2C08BFB8F1020F7FF432
:1004B00019AF3868410502D5E8680028ECD07868A3
:1004C000296920F0F85040EA016078602878010737
:1004D0000ED56869002870683FF428AF40F001002D
:1004E000706000F00DFA8046706881077FF5F3AE0A
:1004F0002878410739D5B86DC1004FF000080AD4FB
:10050000B86D40F08050B8654FF00108B86D00F04C
:10051000805000900098DFF87C93D9F80000C10566
:1005200013D4D9F8000040F48070C9F8000000F03E
:10053000E7F98246D9F80000C10506D400F0E0F9D9
:10054000A0EB0A000328F5D378E6A86801287FF419
:10055000FDAE306840F00100306008E7B8F1000FF0
:1005600003D0B86D20F08050B865A86A00283FD04D
:1005700002287FF460AFF868EA6A00F00301914254
:1005800001BF00F070012A6B521EB1EB021F04D1B3
:100590006A6B00F4FE41B1EB022F7FF41CAFA96B34
:1005A00007290CBF0021012101E7FA68DFF8E812F2
:1005B000E86A0A40296B0243491E686B42EA01124D
:1005C000E96B490842EA0022286C491E400842EAC9
:1005D0004152401E42EA4062A86B000942EA404292
:1005E000FA6000F01EF80546386881017FF50CAF0F
:1005F0000020BDE8F687A0EB0800032870473868A4
:1006000040F0080038603968286A21F0F0010143A1
:1006100039607968E86921F47F4141EA0021796015
:100620007047386840F080703860F96841F0807138
:10063000F96000F065B92DE9F0410400884678D0F2
:10064000DFF85862306800F00700404509D2316891
:10065000C90848EAC1013160306800F00700404530
:1006600067D12078DFF81452C1074AD560680328A3
:1006700002D129688A0108E0022802D129688A0388
:1006800003E00028296802D18A0702D451E04A0514
:100690004FD5A968890840EA8100A86000F030F9C8
:1006A0000746A868616800F00C00B0EB810F28D005
:1006B00000F026F9C01B41F289318842F1D30320B2
:1006C0001DE02078410705D5AA68E06822F4E062C1
:1006D0000243AA602178080706D5A968206921F499
:1006E000605141EAC001A96000F02FF8AA6800F04B
:1006F00022F8BDE8F0416348006800F0DFB8BDE8CB
:10070000F0812078810705D5AA68A06822F0F00260
:100710000243AA60316801F007018845D1D23068F0
:10072000C00848EAC0003060316801F00701414567
:10073000C7D00120E3E75A49C2F30312895C504A4B
:1007400001F01F01C8401060704770B54B4A564B0E
:100750009068D6680025002110F00C0006F0030612
:10076000524C03D00C2812D1012E1AD115682E0735
:1007700004D4454D2E68C6F3032502E01568C5F381
:1007800003154B4E56F8255048B9294624E0042855
:1007900008BF214620D008281ED119461CE00C288D
:1007A0001AD1D06800F00300022803D0032808BF44
:1007B0001D4600E02546D168D068D268C0F3062007
:1007C0004543C1F30210C2F34161401C491CB5FB13
:1007D000F0F04900B0FBF1F1084670BD2848314AFD
:1007E000006813683349C3F3022206E024482D4A07
:1007F000006813682F49C3F3C222895C01F01F010E
:10080000C84070477CB52C4E054630680024C100B6
:1008100002D500F07BF80EE0306840F08050306088
:10082000316801F080510091009800F06FF8316854
:1008300021F080513160B0F5007F04D1802D0CD9BA
:10084000A12D09D304E0802D88BF032405D801D150
:10085000022402E0702D00D1012410480168C9086B
:1008600044EAC1010160006800F00700A04201D025
:10087000012076BD002076BD00000000001002407F
:10088000E0000020D80000209410024090100240A8
:10089000FFFFEEFE007000408C809DF900200240BA
:1008A000E01B00080810024000127A000024F40047
:1008B000281C00083C1D00085810024070B50E4E60
:1008C0000446B0680025A0B14FF47A710B4AB1FB21
:1008D000F0F11068B0FBF1F000F093F848B9102C7B
:1008E00007D2002221464FF0FF3000F06DF874600F
:1008F00000E00125284670BDD4000020E000002063
:1009000001480068704700BFD4000020DFF878007D
:10091000006800F4C060704710B5DFF86C10B0F5E7
:10092000007F086800F4C06015D1B0F5007F1BD0CF
:100930000868DFF85820DFF8584020F4C06040F421
:10094000007000F018F84A6953050FD5002818BF49
:10095000401EF8D10AE0B0F5806F05D0086820F499
:10096000C06040F480600860002010BD4869410507
:10097000FAD5032010BD0860322013684343B3FB4F
:10098000F4F0401C7047000000700040E0000020C0
:1009900040420F000901020002D4244881547047EC
:1009A000234B02F00F021A4402F8041C7047214B3B
:1009B00019684FF6FF020002114000F4E06008439E
:1009C0001D4908431860704738B51A4B1C68C4F3BA
:1009D0000223C3F10704052C28BF04241D1D072D85
:1009E00034BF0023DB1E012505FA04F4641E2140F8
:1009F000994005FA03F35B1E1A401143BDE83440E9
:100A0000C8E710B5401EB0F1807F01D3012010BDB2
:100A10000A4C60600F214FF0FF30FFF7BBFF002151
:100A2000A16007202060002010BD000000E400E06D
:100A300018ED00E00CED00E00000FA0510E000E029
:100A400038B5040009D004F17005696809B900F0EF
:100A50001EF800F021F8012801D1012032BD606AA2
:100A600008B100F02AF800F00AF821F02A01FFE7A7
:100A7000816000F01BF8BDE8324000F03CBA20680D
:100A8000416821F4904141602068816870470020EE
:100A90002870204600F0BABA2421696020680268F4
:100AA000520852000260204600F068B820680168D1
:100AB00041F00101016020467047204600F0B8B9BE
:100AC0002DE9FC47054605F170048846606820283A
:100AD0001746994646D1B8F1000F14BF002F0120E8
:100AE00041D0207801283DD0012121700020E06014
:100AF0002122626005F15006FFF702FF378082462F
:100B00007780A868B0F5805F04BF286900280EBF11
:100B10004746404600270021217080460FE018F824
:100B2000012B028508E02868B8F1000FF7D137F8EB
:100B3000021BC1F3080101857088411E7180534674
:100B40007088CDF8009000280FD000228021284620
:100B500000F0FEF90028E6D0032004E020206060C9
:100B6000002000E00220BDE8F68700224021284650
:100B700000F0EEF90028F1D0EEE700002DE9F04199
:100B800004469D4822681368A168034020690B430E
:100B900061690343E0690B43034313600026516816
:100BA000E06821F44051014351600025A369914957
:100BB0008A421CBF206A03439768904827F4306735
:100BC0003B4393608E4F8F4BBA4221D11B6803F099
:100BD0000303032B29D8DFE803F0025F50710127DC
:100BE000E169B1F5004F4FF6F07840F0D38067B17E
:100BF000012F00F0A980022F00F0A980042F00F03F
:100C0000AB80082F00F0B180B7E0FFF7E7FDA5E06B
:100C10007D4FBA4223D11B6813F00C035FD0042B25
:100C20003AD0082B29D00C2B48D010278A42D7D194
:100C3000390006D0022F09D0042F52D0082F53D0EC
:100C4000D0E0FFF7CBFD002800F0CD80626802EB1A
:100C50004201884202D31303834248D2C2E06B4F61
:100C6000BA420CD11B6813F0300338D0102B13D0CC
:100C7000202B02D0302B21D0D7E70227D6E7644FB4
:100C8000BA420BD11B6813F0C00328D0402B03D00D
:100C9000802BF2D0C02BEEE70427C7E75D4FBA42A6
:100CA0000ED11B6813F4407319D0B3F5807FF3D0D5
:100CB000B3F5007FE1D0B3F5407FB6D10827B5E7A3
:100CC0008A42B2D11B6813F4406308D0B3F5806F39
:100CD000E2D0B3F5006FD0D0B3F5406FCBE700277B
:100CE000A4E7FFF732FDAEE74FF40040AEE737B1BF
:100CF000022F0AD0042F0ED0082F16D01BE0FFF7CA
:100D00006DFD00F08FF879410AE0434911EB520084
:100D100045EB050104E0FFF718FD00F083F8694199
:100D2000002300F0A9F9064606E0530803F5000386
:100D3000B3FBF2F600E00125A6F540703749884282
:100D400050D22268D6604EE0FFF750FD06E06068A2
:100D5000334901EB50010CE0FFF7F7FC61684A08EA
:100D600002EB4002B2FBF1F605E06068410801F5D4
:100D70008031B1FBF0F6B6B200E00125A6F110001B
:100D800040452FD208EA0601C6F34200014320681D
:100D9000C16028E047B1012F09D0022F0CD0042FE9
:100DA00008D0082F0ED015E0FFF718FD04E0FFF77C
:100DB0001DFD01E0FFF7C9FC616800EB5100B0FBCD
:100DC000F1F605E06068410801F50041B1FBF0F67D
:100DD000B6B200E00125A6F11000404502D221681C
:100DE000CE6000E001250020206660662846BDE850
:100DF000F081000000800040F369FFEF0024F40060
:100E00000038014088100240004400400048004083
:100E1000004C004000500040000024F400FD0F0092
:100E20000048E8016268010E560816EB0020704782
:100E300090F82410CA0706D502685368816A23F423
:100E400000330B43536090F824108A0706D50268DC
:100E50005368C16A23F480330B43536090F8241025
:100E60004A0706D502685368016B23F480230B43BD
:100E7000536090F824100A0706D502685368416B46
:100E800023F400430B43536090F82410CA0606D5A0
:100E900002689368816B23F480530B43936090F84E
:100EA00024108A0606D502689368C16B23F40053A8
:100EB0000B43936090F824104A0610D502685368DB
:100EC000016C23F480130B435360036CB3F5801F54
:100ED00005D15368416C23F4C0030B43536090F871
:100EE00024100A0606D501684A68806C22F40022A4
:100EF00002434A607047F8B5044604F170050020CB
:100F0000E8606FF07E47FFF7FBFC0646206801684B
:100F10000A0708D50097334600224FF400112046F7
:100F200000F016F860B9206801684A070AD50097F2
:100F3000334600224FF48001204600F009F808B142
:100F40000320F2BD20206860A86000202870F2BD58
:100F50002DE9F041069C05460E4690461F4628683E
:100F6000C1693140B1420CBF01200020404528D169
:100F700014F1010FF3D0FFF7C3FCC01B844200D370
:100F80004CB92868016821F4D071016000F01CF8A8
:100F90000021017013E0286801684A07DFD5C169A4
:100FA0000A05DCD54FF4006101622868026822F46A
:100FB000D0720260002200F007F8C16002700320C6
:100FC00000E00020BDE8F0812868816849084900F8
:100FD000816005F170002021416081607047000050
:100FE000214881B0816841F001018160816801F090
:100FF000010100910099026842F08052026000688D
:1010000000F080500090009801B0704738B586B06D
:10101000044601A8142100F0B3F82468134DAC4233
:1010200020D11348416941F480414161416901F493
:10103000804100910099026842F002020260C021E2
:10104000006800F002000090022200980948019117
:10105000029200210391032207210591049201A924
:1010600000F092F807B030BD58100240003801403F
:101070004C10024000040048D3BBD9B1B2F5803F08
:101080005BD2022A1ED98C46B1FBF2F102FB11C3DE
:101090001B0443EA1043B3FBF2FC02FB1C3380B297
:1010A00040EA0343B3FBF2F002FB103240EA0C408B
:1010B00000237047022A05D98446B0FBF2F002FBF8
:1010C00010C270474AB105D100F0010249085FEA39
:1010D0003000704700220023704700F053B90B0026
:1010E0000200002100207047F7D300220023704740
:1010F000904271EB030CF2D370B5B1FA81F4B3FAFC
:1011000083F52C1BA340C4F1200532FA05F63343C6
:10111000A2405FF00046E64002E05B085FEA320270
:10112000841A71EB030524BF204629467641F4D387
:1011300002000B003000002170BD70B5B1FA81F4DF
:10114000B2FA82F5C4F120046419B4F12006DAD3AE
:10115000B2405FF00044F440002502E052085FEA2C
:101160003303C61A71EB020E24BF30467146644148
:101170006D41F3D302000B002000290070BD000078
:10118000002200F001B900002DE9F84F4FF00008EF
:10119000734A0F2304460D4635E0724EB44214BF25
:1011A000072606268E4046EA0E064CF82760C743FF
:1011B0006D490E6807EA060C6E68F60348BF40EA00
:1011C0000C0CC1F800C04E6807EA060C6E68B60346
:1011D00048BF40EA0C0CC1F804C08E6807EA060C50
:1011E0006E68F60248BF40EA0C0CC1F808C0CE6831
:1011F00007EA060C6F68BE0248BF40EA0C0CC1F853
:101200000CC008F10108296831FA08F000F09A8052
:10121000012000FA08F616EA0100F2D04FEA48076A
:101220000321B9406FEA010C6968012918BF02293E
:101230006FEA060E03D0112918BF122910D1A16838
:10124000EE680CEA0101BE403143A16061686E683E
:10125000C6F300160EEA010106FA08F63143616092
:10126000696801F00306032E08D1E66AC1F3C001E4
:101270000EEA060601FA08F13143E162E168AE6860
:101280000CEA0101BE403143E1604FEA88016E681B
:10129000022E18BF122E13D14FEAD80604EB860E89
:1012A00001F01C09DEF82060D5F810B003FA09FA45
:1012B00026EA0A060BFA09F949EA0606CEF8206082
:1012C000266895F804E00EF0030E0CEA06060EFA06
:1012D00007F7374327606F68FE0092D51768DFF87D
:1012E0008CC047F00107176001F00C01166806F08A
:1012F0000106009603FA01FE009F4FEA98075CF88A
:10130000276026EA0E0EB4F1904F08BF002618D0D1
:10131000174EB44208BF012613D0164EB44208BF80
:1013200002260ED0144EB44208BF032609D0134E35
:10133000B44208BF042604D0114EB4427FF42DAF4E
:1013400005262FE7BDE8F18F0AB181617047816200
:10135000704742690A4201D08162704781617047DB
:1013600060100240001800480004014008000140DD
:101370000004004800080048000C00480010004825
:10138000001400487047000000B500BF13009646E7
:101390009446103928BFA0E80C50FAD85FEA417C87
:1013A00028BF0CC048BF40F8042BC90728BF20F84D
:1013B000022B48BF00F8012B00BD00002DE9FC47BF
:1013C000054600242868DFF8FC630105A14621D505
:1013D000686E70B1B0F5800F17D0B0F5000F03D074
:1013E000B0F5400F09D013E0326842F48032326029
:1013F00004E0002100F07FF9044654B9F16F686EF3
:1014000021F440010143F16704E000F06EF9F3E7D5
:101410000124A1462868C10421D5A86EA8B1B0F165
:10142000807F17D0B0F1007F03D0B0F1407F04D0AF
:1014300013E0316841F4803131607CB9F16FA86EFE
:1014400021F040710143F16709E0002100F053F9F8
:101450000446F2E700F049F9FAE70124A1462868BA
:1014600081032BD5F06CC1004FF000080AD4F06C5A
:1014700040F08050F0644FF00108F06C00F08050B4
:1014800000900098DFF81874386840F48070386075
:10149000FFF736FA82463868C10500F1F780FFF79A
:1014A0002FFAA0EB0A000328F5D30324A146B8F1D4
:1014B000000F03D0F06C20F08050F0642878C10752
:1014C00005D5F26FA86B920840EA8202F26729788C
:1014D000880705D5F16FE86B21F00C010143F16736
:1014E0002978480705D5F16F286C21F030010143B8
:1014F000F1672978080705D5F16F686C21F0C00104
:101500000143F1672978C80605D5F16FA86C21F46D
:1015100040710143F1672978880605D5F16FE86CC1
:1015200021F440610143F1672968880505D5F16F11
:10153000E86D21F440210143F1672968480505D58C
:10154000F16F286E21F440110143F16729784806B4
:1015500005D5F16F286D21F440510143F1672978D9
:10156000080605D5F16F686D21F440410143F1672C
:101570002968C80505D5F16FA86D21F440310143F4
:10158000F167296888041FD5F16FE86E21F040618A
:101590000143F167E86EB0F1006F0DD100F0A0F8E3
:1015A00012E0FFF7ADF9001B41F289318842C0F02B
:1015B0008B804FF003097AE7B0F1806F04D100F01F
:1015C00099F8010018BF81462868010314D5F26F0D
:1015D000286F22F040620243F267286FB0F1006F7B
:1015E00002D100F07DF807E0B0F1806F04D100F087
:1015F00081F8010018BF81462868410314D5F26FB5
:10160000686F22F040620243F267686FB0F1006FCA
:1016100002D100F065F807E0B0F1806F04D100F06E
:1016200069F8010018BF81462868410418D5F26F97
:10163000A86F22F040520243F267A86FB0F1805FBA
:1016400003D1022100F057F807E0B0F1005F07D1A5
:10165000022105F1200000F0B7F8010018BF814613
:101660002868010405D5F26FE86F22F0804202433A
:10167000F2672968C80306D5F16FD5F8800021F01C
:1016800000410143F1674846BDE8F687002C7FF42E
:101690000DAFDFF84C72386810F440701CBFD5F8FD
:1016A000841088420BD03868396841F48031396041
:1016B00020F440703A6822F480323A603860C00703
:1016C00006D5FFF71DF90446386881077FF569AF35
:1016D0003A68D5F8840022F4407202433A60E6E6A4
:1016E000306840F4801030607047002105F1200020
:1016F00000F06AB80121281DFFE72DE9F04100F054
:10170000E5F809D0F16801F0030181422BD150B313
:1017100000F0C8F80CD026E0012804D023D3032819
:101720001BD016D31FE0326891071CD500F0C1F81A
:10173000306820F0806000F0C6F880463068010113
:1017400033D5FFF7DDF8A0EB08000328F6D3032517
:1017500036E031684A05E9D405E031688A03E5D40A
:1017600031684A03E2D401252AE0012C326909D10B
:101770003B695D4802405B0842EA01215B1E41EA89
:10178000435102E07B6900F081F83161306840F03C
:10179000806000F098F80446306801010CD4FFF72F
:1017A000AFF8001B0328F7D3D1E7B968002CDCD1D0
:1017B000326900F062F8E8E73169B86901433161E4
:1017C00058E000000C1002402DE9F04100F07EF8D6
:1017D00009D0F16801F0030181422BD150B300F030
:1017E00061F80CD026E0012804D023D303281BD0B5
:1017F00016D31FE0326891071CD500F05AF8306804
:1018000020F0805000F05FF880463068810026D5D7
:10181000FFF776F8A0EB08000328F6D3032529E0AC
:1018200031684A05E9D405E031688A03E5D43168B6
:101830004A03E2D401251DE03B6900F027F87161FD
:10184000306840F0805000F03EF804463068810077
:101850000CD4FFF755F8001B0328F7D3DEE7B9686F
:101860007269002CE8D100F008F8E8E7716978693E
:10187000014371612846BDE8F0811C48FB680240C5
:1018800042EA01211B0941EA4341704718480240DE
:101890005B0842EA01215B1E41EA43617047000098
:1018A00000700040F0687968C0F30210401C884264
:1018B0007047F268796822F073021043491E40EACB
:1018C0000110F06070473060FFF71AB80746054E08
:1018D00038680C46F168002511F0030F70470000CE
:1018E0009010024000100240FF809FFFFF80FDFF2C
:1018F000FF80FFF938B586B000F0B6F800F067F861
:1019000001A81421FFF73CFC5248534C0168534D89
:1019100041F001010160026802F0010200920099A9
:10192000026842F0020202600022006800F0020039
:101930000090202100984FF09040FFF705FD002215
:101940004FF480412046FFF7FFFC202100F037F8DC
:101950004FF09040FFF718FC4FF4804100F02FF853
:101960002046FFF711FC3E4828604FF4E1310C207F
:10197000002268616960AA60EA602A61AA61EA617E
:101980002A626A622846FFF75BF800F013F80A2320
:10199000532205F180012846FFF792F800F00AF87B
:1019A0004FF480412046FFF7D4FC4FF47A7000F0EA
:1019B0006BF8ECE720214FF09040FFF7CABC019193
:1019C0000122002103910491029201A9704710B5F0
:1019D000B8B0244C05A82146442200F069F86846B6
:1019E0001421FFF7CDFB16A804F14401882200F072
:1019F0005FF801210B91002260210D910C920121D1
:101A000010911191022228210F921291102005901D
:101A10000722022113921491159105A8FEF7B4FB39
:101A20000F20032100900191002202920392049260
:101A300004216846FEF7FFFD012100221691249241
:101A400016A8FFF7BBFC4FF40070FEF765FF38B037
:101A500010BD00004C1002400004004800000020AF
:101A600000380140C81A0008032010B5FEF79FFF98
:101A70000020FEF723FF0024002814BF0124FFF7F5
:101A8000AFFA204610BD000038B50446FEF738FF17
:101A900014F1010F054602D0044988680419FEF7C5
:101AA0002FFF401BA042FAD331BD00BFD40000205D
:101AB0004AB1000011F8013B521E00F8013B1CBF67
:101AC00011F8013BF8E7704700000000000000003B
:101AD0000000000000000000000000000000000006
:101AE00000000000000000000000000000000000F6
:101AF00000000000000000000000000000000000E6
:101B000000000000000000000000000000000000D5
:101B100000000000000000000000000000000000C5
:101B200000000000000000000000000000000000B5
:101B300000000000000000000000000000000000A5
:101B40000000000000000000000000000000000095
:101B50000000000000000000000000000000000085
:101B60000000000000000000000000000000000075
:101B70000000000000000000000000000000000065
:101B80000000000000000000000000000000000055
:101B9000000000000E48016841F47001016000225D
:101BA0000C49086840F0010008608A604FF48052D8
:101BB0000B68094803400B60CA6000200B68074AA5
:101BC00023F480230B6088614FF00061116070473F
:101BD00088ED00E000100240FFFFF6EA08ED00E0AB
:101BE00000000000000000000102030406070809CD
:101BF00030B5016884684218416802EB5103C90797
:101C00000BD54C4409E012F9011B12F8015B0029C5
:101C100004F8015B05D5491CF9D19A42F3D10C3087
:101C200030BD491EF1D5F8E7A0860100400D030044
:101C3000801A060000350C0040420F0080841E0010
:101C400000093D0000127A000024F40000366E0105
:101C50000048E801006CDC0210B5074979441831EE
:101C6000064C7C44163404E00A68081D1144884779
:101C70000146A142F8D110BD2C0000003800000040
:101C80004EF68851CEF20001086840F470000860FA
:101C9000BFF34F8FBFF36F8F4FF00070E1EE100A6C
:101CA000704700004DFFFFFFDC010000C80000008E
:101CB0000000002000F00DF8002801D0FFF7CCFF55
:101CC000AFF300800020AFF30080FFF713FE00F0B9
:101CD00002F80120704700F001B8000007463846BE
:101CE00000F002F8FBE7000080B5AFF30080024A85
:101CF00011001820ABBEFBE7260002007047FEE78C
:101D0000FEE7FEE7FEE770477047704700F000B857
:101D100002490A68886882180A607047D400002067
:101D20000148804701480047951B0008311D000805
:101D3000AFF30080FFF7A4FFFFF7BCFF0000000037
:101D400001020304FFF7FEBFFFF7FEBFFFF7FEBF70
:101D5000FFF7FEBFFFF7FEBFFFF7FEBFFFF7FEBFB7
:101D6000FFF7FEBFFFF7FEBFFFF7FEBFFFF7FEBFA7
:101D7000FFF7FEBFFFF7FEBFFFF7FEBFFFF7FEBF97
:101D8000FFF7FEBFFFF7FEBFFFF7FEBFFFF7FEBF87
:101D9000FFF7FEBFFFF7FEBFFFF7FEBFFFF7FEBF77
:101DA000FFF7FEBFFFF7FEBFFFF7FEBFFFF7FEBF67
:101DB000FFF7FEBFFFF7FEBFFFF7FEBFFFF7FEBF57
:101DC000FFF7FEBFFFF7FEBFFFF7FEBFFFF7FEBF47
:101DD000FFF7FEBFFFF7FEBFFFF7FEBFFFF7FEBF37
:101DE000FFF7FEBFFFF7FEBFFFF7FEBFFFF7FEBF27
:101DF000FFF7FEBFFFF7FEBFFFF7FEBFFFF7FEBF17
:101E0000FFF7FEBFFFF7FEBFFFF7FEBFFFF7FEBF06
:101E1000FFF7FEBFFFF7FEBFFFF7FEBFFFF7FEBFF6
:101E2000FFF7FEBFFFF7FEBFFFF7FEBFFFF7FEBFE6
:101E3000FFF7FEBFFFF7FEBFFFF7FEBFFFF7FEBFD6
:101E4000FFF7FEBFFFF7FEBFFFF7FEBFFFF7FEBFC6
:101E5000FFF7FEBFFFF7FEBFFFF7FEBFFFF7FEBFB6
:101E6000FFF7FEBFFFF7FEBFFFF7FEBFFFF7FEBFA6
:101E7000FFF7FEBFFFF7FEBFFFF7FEBFFFF7FEBF96
:101E8000FFF7FEBF81004D00454D4253595333319A
:101E9000303A2055572054657374204170706C6936
:101EA000636174696F6E202D205B52616B6573688E
:101EB000204E616964755D27732053544D33324C55
:101EC00034373520496F54206E6F64652069732064
:101ED000616C697665FD21010D0AFA000010FD00B4
:081EE0000001FC0002093D00B5
:0400000508001D31A1
:00000001FF
